:0C00000024C0FECFFDCFFCCFFBCFFACF19
:10000C00F9CFF8CFF7CFF6CFF5CFF4CFF3CFF2CFC0
:10001C00F1CFF0CFEFCFEECFEDCFECCFEBCF0000A9
:10002C00746573742072633520636D64200080C026
:10003C00020004002A000200E0003A000000F894DC
:10004C00EE27ECBBF1E0FBBFEBBFE5BF8DE0A2E020
:10005C00BB27ED938A95E9F780E092E0A0E6ED935B
:10006C000197E9F7ECE3F0E085919591009761F049
:10007C00A591B59105901590BF01F00105900D92D9
:10008C000197E1F7FB01F0CFEFE5EDBFE2E0EEBF4A
:10009C00C0EED0E043C01A93D3D010E0103218F465
:1000AC00D4D01F5FFBCFCAC01A9310E0103218F4E3
:1000BC00CCD01F5FFBCFC4D0C1C01A93D201E2E0F9
:1000CC00F0E0FED0309741F4BBD010E0103218F4C1
:1000DC00BCD01F5FFBCF07C010E0103218F4B5D0B6
:1000EC001F5FFBCFADD0F20131962F01A7C0D3DF3C
:1000FC00D2DFE3DFD0DFD8DFCEDFD6DFD5DFD4DF52
:10010C00D3DFC9DFC8DFD0DFCFDF0895E0E0EBBB82
:10011C00EFEFEABBA0E169D03CD00895F7DFEFEF39
:10012C00E7BBE0E0E8BBACE2B0E050D0E0DFA0EA37
:10013C00BFE0A5D0FBCFFFCF1A931A2FEBB3EF7014
:10014C00AE2FE12FE07FEA2BEBBB8AD0DA9A88D076
:10015C00DA9886D073C0AA93A881EEDFE881E29585
:10016C00E883A881E9DF88EC90E00197F1F721960C
:10017C000895B6D01A2F0A81E12FF0E0E052FF4F1C
:10018C00E081E00FAE2FE7DF702E612EAED023960C
:10019C000895A2E069D0ACE0DEDFA1E065D0E0E03C
:1001AC006E2E7E2E08951A931A2F1A3011F0791490
:1001BC0038F0E0E0EA936394A62DDBDF1A30F1F11E
:1001CC007394D89AA12FC7DFD89838C087D09D01D7
:1001DC00F9012F5F3F4FE4911E2FE03019F0A12F52
:1001EC00E2DFF6CF80D0249608951A931A2FEAB343
:1001FC00E06FEABBD29AD09AD19ADA98D898D9986B
:10020C00912EE12FE058E093E200E12FE054E093CF
:10021C00E300A4E1B0E033D02BD02AD029D0A0E267
:10022C008BDF80E991E00197F1F7A8E294DFA4E07D
:10023C0092DFA5E890DFA6E08EDFABDF1991089581
:10024C0084EE9DE00197F1F70895E1E0E8BB85E2CB
:10025C008A95F1F7E0E0E8BB80E78A95F1F708951D
:10026C008BE18A95F1F7089576DFA3E0B0E007C043
:10027C00A0E362DF80E991E00197F1F70895109611
:10028C0039F0A89580EA9FE00197F1F71197C9F72B
:10029C000895F195E195F04008950024112490E122
:1002AC00AA0FBB1F001C111C0E1A1F0A18F40E0EED
:1002BC001F1E01C0A1609A9599F7FD01D001089508
:1002CC00E894B7FF04C0A095B09511966894F7FD1B
:1002DC00E0DFE3DFFD010EF4DCDF08953A932A93AF
:1002EC001A930A9308953B812A81198108810895F4
:00000001FF
