:060000001EC0FECFFDCF83
:10000600FCCFFBCFFACFF9CFF8CFF7CFF6CFF5CFAE
:10001600F4CFF3CFF2CFF1CFF0CFEFCFEECFEDCFDE
:10002600ECCFEBCF5465737420646D78000080C00C
:100036000200E60034000000F894EE27ECBBF1E085
:10004600FBBFEBBFE5BF8DE0A2E0BB27ED938A9532
:10005600E9F780E092E0A0E6ED930197E9F7E6E3A1
:10006600F0E085919591009761F0A591B591059085
:100076001590BF01F00105900D920197E1F7FB0184
:10008600F0CFEFE5EDBFE2E0EEBFC0EED0E057C047
:100096001A93E2E0E1BBE2BB10E0173028F4E0D0AF
:1000A600A0E0A0831F5FF9CFD9C0E8E0EAB9EEE887
:1000B600E0BDE0E0E0BDE3E0E9B90895E0E0EAB9DB
:1000C600E2BB88E592E00197F1F7E2E0E2BB8BE262
:1000D6008A95F1F708951A9310E0173038F45D9B6E
:1000E600FECFBED0E081ECB91F5FF7CFB7C0E0E02E
:1000F600EAB9E2E0E2BB0895E1DFD7DFECDFF7DF44
:100106000895CCD01A2F0C813D81E0E0E093E00009
:100116003093E1000093E2001093E300EDDFAEE2DE
:1001260052D0C1D026960895E0E0EBBBEFEFEABBD4
:10013600A0E16BD03ED0AAE2B0E058D00895F4DF3B
:10014600A7DFEFEFEA93E0E0EA93AFEFDADFA4EFA1
:10015600B1E09AD0F6CFFFCF1A931A2FEBB3EF7018
:10016600AE2FE12FE07FEA2BEBBB7FD0DA9A7DD072
:10017600DA987BD073C0AA93A881EEDFE881E29576
:10018600E883A881E9DF88EC90E00197F1F72196F2
:10019600089586D01A2F0A81E12FF0E0EA51FF4F29
:1001A600E081E00FAE2FE7DF502E412E7ED0239662
:1001B6000895A2E05ED0ACE0DEDFA1E05AD0E0E038
:1001C6004E2E5E2E08951A931A2F1A3011F05714D8
:1001D60038F0E0E0EA934394A42DDBDF1A30F1F126
:1001E6005394D89AA12FC7DFD89838C057D09D010D
:1001F600F9012F5F3F4FE4911E2FE03019F0A12F38
:10020600E2DFF6CF50D0249608951A931A2FEAB358
:10021600E06FEABBD29AD09AD19ADA98D898D99850
:10022600712EE12FE058E093E800E12FE054E093CF
:10023600E900A4E1B0E028D020D01FD01ED0A0E273
:100246008BDF80E991E00197F1F7A8E294DFA4E063
:1002560092DFA5E890DFA6E08EDFABDF1991089567
:10026600E12FF0E0E052FF4F08958BE18A95F1F718
:10027600089581DFA3E0B0E007C0A0E36DDF80E969
:1002860091E00197F1F70895109639F0A89580EA64
:100296009FE00197F1F71197C9F708953A932A93CA
:1002A6001A930A9308953B812A811981088108953A
:00000001FF
