:0400000026C0FECF49
:10000400FDCFFCCFFBCFFACF4CC0F8CFF7CFF6CF64
:10001400F5CFF4CFF3CFF2CFF1CFF0CFEFCFEECFD8
:10002400EDCFECCFEBCF1027E80364000A0001000A
:100034000010000110000100000080C00100050054
:100044003C000200E0003E000000F894EE27ECBB08
:10005400F1E0FBBFEBBFE5BF8DE0A2E0BB27ED9372
:100064008A95E9F780E092E0A0E6ED930197E9F73D
:10007400E0E4F0E085919591009761F0A591B59148
:1000840005901590BF01F00105900D920197E1F7DD
:10009400FB01F0CFEFE5EDBFE2E0EEBFC0EED0E054
:1000A40012C01A92AA93EA93EFB7EA935394E52DF8
:1000B400E370A4E019D0EA1BE8BBE991EFBFE99132
:1000C400A99119901895E7E0E7BBEEE6F0E0FBBDD7
:1000D400EABDE8E0EEBDE0E1E9BF7894E1E0E8BB29
:1000E400E9E0EEBDFFCFFFCF1A2EAE2FE12D08952C
:00000001FF
