:0C0000005EC0FECFFDCFFCCFFBCFFACFDF
:10000C00F9CFF8CFF7CFF6CFF5CF7FC0F3CFF2CF44
:10001C00F1CFF0CFEFCFEECFEDCFECCFEBCF0000A9
:10002C0000004C4344204F4B00432052002056000C
:10003C002042000A004C2058002059004D20004D51
:10004C0075736963204F4646004D75736963204F85
:10005C004E00504C41590050415553450053544F9C
:10006C00500050524556004E455854004D7573691A
:10007C006320554E4D555445004D75736963204DA5
:10008C00555445004D4F494E5300504C55530000AC
:10009C0080C001002D4E414E00494E460000040028
:1000AC0004002A00020018019C0001001C019E00A3
:1000BC000000F894EE27ECBBF1E0FBBFEBBFE5BF13
:1000CC008DE0A2E0BB27ED938A95E9F780E092E002
:1000DC00A0E6ED930197E9F7EAEAF0E085919591B6
:1000EC00009761F0A591B59105901590BF01F001B5
:1000FC0005900D920197E1F7FB01F0CFEFE5EDBF15
:10010C00E2E0EEBFC0EED0E0B2C0EA93FA93EFB7F4
:10011C00EA931A931CB1133211F4E1E05E2EE42D34
:10012C00F0E0E052FF4F108343941991E991EFBF37
:10013C00F991E9911895E0E0EBBBEFEFEABBA0E198
:10014C00C7D18CD1AEE2B0E0B4D10895E0E9EAB900
:10015C00E6E8E0BDE0E0E0BDE7E6B8C09FD23A2FAC
:10016C00032F11271A930A93AEEFB0E0DCD1AEEF58
:10017C00B0E092D1AAC1A5E3B0E003D2A9E3B0E00C
:10018C0004D2ACE3B0E095D1A091E300E7DF01D25B
:10019C00E091E200EA93A091E300BDD00AC0A1E493
:1001AC00B0E0EFD1A5E4B0E0F0D1F3D1A091E20042
:1001BC00C3D0CCDF0895A8E4B0E0E3D1A9E4B0E06B
:1001CC00E4D1AFE3B0E075D1E091E100E03071F43F
:1001DC00E091E200E03029F4ABE4B0E06AD1E7D082
:1001EC0004C0A5E5B0E065D1DFD040C0E13029F412
:1001FC00AEE5B0E05ED1EAD039C0E23029F4A3E636
:10020C00B0E057D1EDD032C0E33029F4A9E6B0E02C
:10021C0050D1E1D02BC0E43029F4AEE6B0E049D1A6
:10022C00E9D024C0E53029F4A3E7B0E042D1DBD01B
:10023C001DC0E63071F4E091E200E03029F4A8E74B
:10024C00B0E037D1BAD004C0A5E8B0E032D1B2D01A
:10025C000DC0E73029F4A0E9B0E02BD1B4D006C032
:10026C00E83021F4A6E9B0E024D1AAD0089563DFE8
:10027C0019D06CDF7894E1E0E51591F4F894EED0A8
:10028C00E091E000E33411F476DF07C0EC3411F4B4
:10029C0086DF03C0ED3409F48EDF442455247894B2
:1002AC00EACFFFCF1A93E2E0E1BBE2BB10E01730DC
:1002BC0028F476D1A0E0A0831F5FF9CF32C1E8E02B
:1002CC00EAB9EEE8E0BDE0E0E0BDE3E0E9B90895AD
:1002DC00E0E0EAB9E2BB88E592E00197F1F7E2E0F1
:1002EC00E2BB8BE28A95F1F708951A9310E0173070
:1002FC0038F45D9BFECF54D1E081ECB91F5FF7CF92
:10030C0010C1E0E0EAB9E2E0E2BB0895E1DFD7DF3B
:10031C00ECDFF7DF0895C2D11A2F0C813D81E0E0AC
:10032C00E093120130931301009314011093150103
:10033C00EDDFB9D126960895B3D11A2F0A81E0E0EA
:10034C00E09312010093160110931701DFDF83C0B5
:10035C001A932BD110E0103218F42CD11F5FFBCF65
:10036C00E0C01A9310E0103218F424D11F5FFBCFB9
:10037C001CD1D7C01A93D301E2E0F0E081D13097C1
:10038C0041F413D110E0103218F414D11F5FFBCFDD
:10039C0007C010E0103218F40DD11F5FFBCF05D150
:1003AC00F30131963F01BDC010D111D120C00DD148
:1003BC000ED11DC00AD114D121C007D111D11EC03C
:1003CC0004D117D112C001D114D116C0FED019D14D
:1003DC00C8DFBEDF13C0F9D014D1C3DFF6D008C01C
:1003EC00F4D00FD102C0F1D013D1BBDFBADFB9DF2B
:1003FC00B8DF0895EAD00CD1B4DFB3DFB2DFA8DFE9
:10040C0008951A931A2FEBB3EF70AE2FE12FE07F04
:10041C00EA2BEBBB05D1DA9A03D1DA9801D181C072
:10042C00AA93A881EEDFE881E295E883A881E9DF51
:10043C0088EC90E00197F1F72196089531D11A2FAD
:10044C000A81E12FF0E0E85EFE4FE081E00FAE2F75
:10045C00E7DF902E812E29D123960895A2E0E4D0D7
:10046C00ACE0DEDFA1E0E0D0E0E08E2E9E2E089521
:10047C001A931A2F1A3011F09B1440F0E0E0EA9313
:10048C008394A82DDBDF1A3009F44BC09394D89ACF
:10049C00A12FC6DFD89845C001D19D01D9012F5F8E
:1004AC003F4FEC911E2FE03019F0A12FE1DFF6CF7A
:1004BC000CC0F4D09D01F9012F5F3F4FE4911E2F2A
:1004CC00E03019F0A12FD4DFF6CFEDD024960895AB
:1004DC001A931A2FEAB3E06FEABBD29AD09AD19A48
:1004EC00DA98D898D998B12EE12FE058E0931A01F8
:1004FC00E12FE054E0931B01A4E1B0E0A0D098D030
:10050C0097D096D0A0E27DDF80E991E00197F1F7DA
:10051C00A8E286DFA4E084DFA5E882DFA6E080DF26
:10052C009DDF19910895BA93AA93A991B991E99174
:10053C00F99130962AF4E095F09531966DE26D9331
:10054C00E89480E197E20DD088EE93E00AD084E63F
:10055C00992707D08AE005D06E2F10D066276C93B0
:10056C0008956627E817F90720F06395E81BF90B47
:10057C00C9F7662311F416F008956894605D6D93C5
:10058C00089597DFA091E100E9CD93DFA091E200FF
:10059C00E5CDAFE3B0E08DDFE091E100EA930895A3
:1005AC00E12FF0E0EE5EFE4F089584EE9DE00197A2
:1005BC00F1F70895E1E0E8BB85E28A95F1F7E0E018
:1005CC00E8BB80E78A95F1F70895C2DEC1CED2DE92
:1005DC00BFDEC7DEBDDEC5DEC4DEC3DEC2DEF5CFE8
:1005EC00C9DEB6DEBEDEBDDEBCDEBBDEBADEB9DE2B
:1005FC00ECCFC0DEADDEB5DEB4DEB3DEB2DEB1DE36
:10060C00A7CEB8DEA5DEADDEA3DEABDEAADEDDCF87
:10061C00B1DE9EDEA6DE9CDEA4DEA3DE99DEA1CEDC
:10062C008BE18A95F1F70895FBDEA3E0B0E007C0FB
:10063C00A0E3E7DE80E991E00197F1F708951096C9
:10064C0039F0A89580EA9FE00197F1F71197C9F767
:10065C000895F195E195F04008950024112490E15E
:10066C00AA0FBB1F001C111C0E1A1F0A18F40E0E29
:10067C001F1E01C0A1609A9599F7FD01D001089544
:10068C00E894B7FF04C0A095B09511966894F7FD57
:10069C00E0DFE3DFFD010EF4DCDF08953A932A93EB
:1006AC001A930A9308953B812A8119810881089530
:00000001FF
